:020000040800F2
:100000000000011095760608812800087929020869
:1000100035770608357706083577060800000000B2
:10002000000000000000000000000000213F000868
:10003000253F000800000000293F00088DDC000873
:1000400035770608357706083577060835770608C8
:100050003577060835770608B1A80008B5A8000866
:1000600035770608B9A80008BDA80008A12B00082C
:10007000B52B0008C92B0008DD2B0008F12B000868
:10008000052C0008192C0008357706083577060876
:10009000357706083577060835770608C1A80008C1
:1000A0004D2A0008752A00089D2A0008392A0008F0
:1000B000C52A0008D92A0008ED2A00083577060865
:1000C0003577060835770608357706083577060848
:1000D00035770608E9290008F5290008012A0008F3
:1000E000C5A80008357706082D3F0008292B000811
:1000F000512B0008792B0008152B00082D2C000827
:100100003577060835770608012B0008357706088D
:100110000D2A0008192A00083577060835770608E1
:10012000412C0008552C0008652C0008752C00088F
:10013000852C0008357706083577060835770608D8
:10014000357706083577060835770608813F0008B9
:10015000952C0008A92C0008BD2C0008252A0008B1
:1001600035770608357706083577060835770608A7
:100170003577060835770608357706083577060897
:08018000357706083577060803
:10019000D0E907239A422FBFD01AC0688018C01A2E
:1001A000704700BFD0E9092300699A4238BF12188E
:1001B000D31A0138C01A7047D0E90902101AB0FAF0
:1001C00080F04009704700BF0246036A4069D16869
:1001D000C05C01338B4228BF00231362704700BF0D
:1001E000436A8269D154436A0169426B01338B428D
:1001F00028BF00234362D36843F08003D360704775
:10020000436B188810F0100002D01A889B880120D8
:10021000704700BF436B99891A88890610B5044658
:100220000AD592B2900607D5E26A002A29D09888AA
:10023000216B80B29047636B99891A88090692B244
:100240000FD510060DD5D4E909128A4214D0A16940
:100250002069895C99800132B2FBF0F100FB112228
:10026000A262998A1A88C90592B204D5D20744BFFE
:100270004FF6F7721A8010BDDA6822F08002DA6059
:10028000EFE79B88E2696169DBB28B54E269E16860
:10029000636B0132B2FBF1F001FB1022E261CBE7AC
:1002A000036942681F2B10B40AD95468A3F1200CCB
:1002B000202101FA0CF1214207D15DF8044B70476F
:1002C0001468202199402142F7D081690024C86830
:1002D0000C7480684C68016821F00101016020689D
:1002E00094F805C00C4C818934F81C4089B221EA8D
:1002F00004011F2B818107D9A3F1200120238B400A
:100300005DF8044BD3607047202101FA03F35DF8D8
:10031000044B9360704700BFA8B6060882B009225C
:10032000274B8DF80720DA68D00319D4DA68D10694
:1003300040D4DA68D20541D4DA6812F0E00F3BD13C
:10034000DB6813F0020F14BF082309238DF8073070
:100350009DF80730012B0AD09DF8070002B07047C6
:1003600001238DF807309DF80730012BF4D1144A92
:1003700012E0D368DB0519D4D36813F0E00F17D16E
:10038000D36813F0020F14BF082309238DF8073038
:100390009DF80730012BDFD1D168C8034FF001036E
:1003A000F4D4D368D906E4D50623EFE70223EDE7BA
:1003B0000723EBE70623D4E70723D2E70223D0E79E
:1003C000003C0240704700BF704700BF01207047EB
:1003D000044BD3E90003984288BF03F50063181A61
:1003E000704700BFB81F0020054AD2E900318B4298
:1003F000FDD0D1180133C3F30A03087A13607047A4
:10040000B81F0020064BD3F8080800B97047D3F88E
:100410000808A0F10500B0FA80F04009704700BF5D
:10042000B81F0020012380F849307047064BD3F8ED
:100430000C08D3F81028431E90428CBF00200120E6
:100440009B1A03EBC0207047B81F002010B5D0F8EE
:10045000E83504461B699847032384F812310020CD
:1004600010BD00BF08B5042290F81211D0F8E8358D
:1004700080F8131180F81221DB689847002008BD2E
:1004800008B5D0F8E435DB6903B19847002008BD12
:1004900008B5D0F8E4351B6A9847002008BD00BFB6
:1004A00008B5D0F8E4355B6A9847002008BD00BF66
:1004B000037830B403B30446C0F1010C04EB0C0321
:1004C00014F8015FDBB2002DF8D101335B00DCB220
:1004D000138003230C704B7004785CB10223002559
:1004E0005A1CD2B2CC548D5410F8014F0233DBB2F7
:1004F000002CF5D130BC704702242346E8E700BF4A
:1005000010B5074C2068FF2808D00649D1F81428F8
:1005100001F6180100F080F8FF232360002010BDD1
:1005200000000020B81F0020432301480B807047C3
:1005300004000020122301480B807047480000206F
:10054000042301480B8070475C00002008B5044B71
:1005500004480A461946FFF7ABFF084608BD00BF2E
:10056000D8270020D446070808B5044B04480A469B
:100570001946FFF79DFF084608BD00BFD827002099
:10058000E446070808B5044B04480A461946FFF735
:100590008FFF084608BD00BFD8270020EC4607089B
:1005A00008B5044B04480A461946FFF781FF084680
:1005B00008BD00BFD8270020F846070808B5044B3F
:1005C00004480A461946FFF773FF084608BD00BFF6
:1005D000D827002004470708704700BF704700BFB6
:1005E000704700BF704700BF704700BF704700BF33
:1005F000044B00200522C3F80828C3F82009C3F8DB
:1006000024097047B81F0020024B0020C3F80808D7
:10061000704700BFB81F0020212838B50C4605D010
:1006200022282DD0202813D0002038BD0029FBD04F
:10063000072AF9D1194BD3F8280993F82C1993F804
:100640002D2993F82E39206021716271A371EBE797
:100650000029E9D0072AE7D1104DD5F8243913B184
:10066000096800209847206821796279A379C5F844
:10067000280985F82C1985F82D2985F82E39D3E716
:100680000029D1D0022ACFD1044BD3F82039002B36
:10069000CAD0098800209847C6E700BFB81F0020CD
:1006A00010B4144CD4E900239A4286BF03F5006CC1
:1006B000ACEB02029A1A0A44B2F5006F13D8B1B13A
:1006C00001444A1E013810F801CFE118824203F1BB
:1006D000010381F808C0C3F30A03F4D1636000206A
:1006E0005DF8044B704702205DF8044B70470846E4
:1006F000F6E700BFB81F00201D49D1F884391A79E8
:10070000022A00D0704710B41A4C93F9102002EB63
:10071000820204EB8202126E1089800708D51289CA
:10072000100605D49A6892070BD45DF8044B704705
:1007300000BFD1F884391A79022AE6D05DF8044B5B
:100740007047D1F888190C480C4A4FF4FA7404FB2E
:1007500001F1A2FB0121446889094268121B914200
:10076000FBD25B69002BE0D01A689B881383DCE71F
:10077000B81F002000000020001000E0D34D6210E0
:10078000034B93F85409003818BF0120704700BF8D
:10079000B81F0020034B93F85409032894BF00208E
:1007A00001207047B81F0020004870471029002022
:1007B00030B4194B00209C7B14B11D688D4206D0CB
:1007C0000130082803F11003F5D130BC70479AB10D
:1007D000124B03EB40218A4219D0114B93F8B421FC
:1007E0008AB1104B01225A7000F5817003EB0010A2
:1007F0000123837130BC70470A4B00F5817003EB15
:1008000000108271E1E7012283F8B421E9E7022CAC
:10081000E3D1183BE8E700BF105C0020104C00203B
:10082000F85B0020F84B002030B41D4C002384F806
:10083000A03004F1180004E00133082B00F110008F
:100840001ED005688D42F7D190F80EC0BCF1030FA1
:10085000F2D1BAB1134901EB4320824209D094F896
:10086000B42112B9012284F8B4210F4901224A703F
:1008700000E0183903F5817301EB031301229A712B
:1008800030BC70470849D4F89C2003F5817301EB14
:100890000313013204219971C4F89C20F0E700BFD2
:1008A000F85B0020104C0020F84B0020A8B18368B2
:1008B0001BB10E4B07229A7070470C4A1178D36017
:1008C00003294FF004000CBF80214FF48071C2E96E
:1008D00001111361137590707047044A02F580513D
:1008E0000123537081F8B431704700BFF84B0020EA
:1008F00010B58121044664F0A3FE2046012164F076
:100900009FFE2046822164F09BFEFFF77DFE0020C3
:1009100010BD00BFC169026910B4002340F2011488
:10092000A0F844410B60D169846D21F002014FF0C1
:10093000010CD161A0F89CC32360D169044821F463
:10094000003180F88C395DF8044BD161184670474E
:10095000B81F0020202301480B807047B000002002
:10096000122301480B807047D00000200423014867
:100970000B807047E40000200A4608B5054920B9FD
:100980000548FFF795FD034808BD0448FFF790FDB3
:10099000004808BD48290020144707082C470708CD
:1009A00008B5044B04480A461946FFF781FD08467E
:1009B00008BD00BF48290020444707082048D0F858
:1009C000E837D0F8EC2730B59B184FF01A040C80AC
:1009D00001D11C4830BD1B4AD0F8EA174FF0000E79
:1009E00010467546B3F1204F4FEA137C0CF13004EA
:1009F0000EF1020E2ABF0CF1370C847080F802C091
:100A0000BEF1100FC5704FEA031300F10200E9D1E7
:100A100000200446B1F1204F4FEA117303F1300C6E
:100A200000F102002ABF373382F812C093740828FD
:100A3000D4744FEA011102F10202EBD1014830BD3A
:100A400000F0FF1FE800002008B5044B04480A46E8
:100A50001946FFF72DFD084608BD00BF48290020B4
:100A60005847070808B5044B04480A461946FFF7DB
:100A70001FFD084608BD00BF48290020644707083D
:100A800010B50F4C0F4BD4F84C1CB4F8500C088325
:100A900003F58272C4F8DC2CD3F80431984702E0E5
:100AA0001B69984720B9D4F8DC3C002BF8D1FEE74D
:100AB000D4F84C3CB4F8502C5A83002010BD00BF31
:100AC000B81F00200000002038B5084BD3F8DC3CEC
:100AD00053B1DB6914460D4698474FF40073026822
:100AE0002A600020236038BD1B68FFDEB81F00208D
:100AF00008B5074BD3F8DC3C33B11B69984780F04D
:100B00000100404240B208BD4FF0FF3008BD00BFB9
:100B1000B81F0020002070472DE9F041164CD4F892
:100B2000400C1646B4F8442C428303B30F4603EB43
:100B3000060806E000234D681A4639463046A847A5
:100B400038B9D4F8DC1C0029F4D1FEE71B699847BA
:100B500020B9D4F8DC3C002BF8D1FEE70136B045D3
:100B600007F50077EDD1D4F8400CB4F8442C02839B
:100B70000020BDE8F08100BFB81F00202DE9F04142
:100B8000184CD4F8400C1646B4F8442C42832BB3CE
:100B90000F4603EB060801E00B699847D4F8DC1C0C
:100BA00051B10023CD681A4639463046A847D4F8DB
:100BB000DC1C08B10029EFD131B10B69984720B98D
:100BC000D4F8DC1C0029F8D1FEE70136B04507F562
:100BD0000077E3D1D4F8400CB4F8442C0283002011
:100BE000BDE8F081B81F0020002070472DE9F041DA
:100BF000204E96F8E03C002BFBD1B9B3014400F144
:100C0000FF384F1ED6F81018D6F80C3818F8010F18
:100C10004A1CC2F30A029A4234BF002401249B1AE0
:100C2000314403EBC423012B81F8E40CC6F81028EF
:100C30001AD10DF077F804460D460DF073F8031B3A
:100C400061EB0501B3F57A7F71F10003F5D3D6F8B6
:100C50000C38D6F8102893428CBF002101219B1A32
:100C600003EBC123012BE4D0B845CBD10020BDE874
:100C7000F08100BFB81F00200A4B10B5D3F8084818
:100C800004B910BDD3F80838052BFAD1064C002A58
:100C90000846D4F8EC331146F3DDFFF7A7FFD4F88C
:100CA000EC3310BDB81F0020B030002090F8482071
:100CB000531C0244DBB280F8483082F8341090F8BC
:100CC00049200AB1132B03D9002280F8482003B928
:100CD00070470A4AD2F808180029F9D0D2F8082833
:100CE000052AF5D110B5064C19463430D4F8EC334A
:100CF000FFF77CFFD4F8EC3310BD00BFB81F002015
:100D0000B030002090F848100023A0F8483001B916
:100D10007047094BD3F80828002AF9D0D3F80838CF
:100D2000052BF5D110B5054C3430D4F8EC33FFF772
:100D30005DFFD4F8EC3310BDB81F0020B0300020A8
:100D40002DE9F0475D4E1F4606EB80039C68002CA2
:100D500000F0AD8004F13E03A36104F59F73E361ED
:100D60004FF48073C4E9043328362368666005466F
:100D7000E16094F83D00A363904609F0A5FD81462B
:100D800094F8440294F83CA0261D00284FD194F812
:100D9000450268BBD4F8403283BB390734D418F01D
:100DA000020F60D118F0010F44D194F9472294F852
:100DB0004712D4F84832002A10DB41481B0184183E
:100DC000DBB284F800335209012301F01F0103FA5A
:100DD00001F140F822103046BDE8F087394A01F0B1
:100DE0000F010A441B01DBB213763046BDE8F087E1
:100DF00062F0DCFCD4F84032002BCED0324A116BCA
:100E00000B4339071363CAD50135EDB2B9F1000FB1
:100E1000CBD040F20673FA0689F80850A9F80630DC
:100E200036D4BB0694F8462245D4322133E062F032
:100E3000BDFCACE7504609F047FD0135EDB2002896
:100E4000B3D040F206620572C28094F846220221B5
:100E500009F012FF94F9472294F84712D4F8483267
:100E6000002AAADABAE76B1CDBB2B9F1000F99D0FD
:100E700089F8083040F20653A9F8063094F8462263
:100E80004846022109F0F8FE18F0010F8DD0D1E795
:100E900094F846220221484609F0EEFE94F94722D2
:100EA00094F84712D4F84832002A86DA96E72646A4
:100EB0003046BDE8F0871221EDE700BFA8B606086E
:100EC00000E100E0FCEC00E0003802402DE9F047D2
:100ED000038A8489A4B21C4082B045D081468846EA
:100EE0004FF0004501F14C0701F13406B4FA84F3E8
:100EF00025FA03F2D24391B2A9F8101014401B3B1B
:100F0000B8F1000F5DD0042B2CD8DFE803F0504679
:100F10003B300300D8F80C30D9F82CA033B19B68D3
:100F200023B11FFA8AF108F104009847D8F8243059
:100F300033B19B6823B11FFA8AF108F11C0098476E
:100F4000D8F83C302BB19B681BB11FFA8AF13046B0
:100F50009847D8F854302BB19B681BB11FFA8AF11F
:100F600038469847002CC1D102B0BDE8F087D8F8C8
:100F70000C30D9F834105B6808F104009847002C55
:100F8000B4D1F1E7D8F82430D9F838105B6808F10B
:100F90001C009847002CA9D1E6E7D8F83C30D9F8D6
:100FA0003C105B6830469847002C9FD1DCE7D8F8AE
:100FB0005430D9F840105B6838469847002C95D1DA
:100FC000D2E7042B07D8DFE803F00319140F0A0057
:100FD000D9F840300193019B002C87D1C4E7D9F8A0
:100FE0002C300193019BF7E7D9F834300193019B32
:100FF000F2E7D9F838300193019BEDE7D9F83C309E
:101000000193019BE8E700BF38B5284C94F8E02C29
:10101000012A034603D0022A09D0002038BD244902
:10102000D1F8F023A2B984F8E02C002038BD0025C7
:1010300040F20112C0E95455C0E95655A0F84421C8
:1010400000F5A27164F00CFC84F8E05C002038BD6F
:10105000402AD4F80C0819D9403AC1F8F0234022AC
:101060008118C4F80C1880B2124940F201140144EE
:101070000020C3E95411C3E95620A3F8444118469F
:1010800003F5A27164F0ECFB002038BD4FF00005C1
:10109000C1F8F05302EB0001C4F80C1808BF02219C
:1010A00080B208BF84F8E01CDEE700BFB81F002054
:1010B000B03000209C2C002001EB810138B500EB02
:1010C000C1010E4DB1F88C1304462846FFF7E8FA2B
:1010D000E378C4F8A85340210022C4E9EC120122AD
:1010E00093422046A4F89C2304F5677108BFC4F816
:1010F000AC5364F0B5FB002038BD00BFA434002021
:1011000038B52A4BD3F834240F2A04D0511CC3F825
:101110003414002038BD264A92F8E05C0021C3F860
:101120003414002DF5D1D2F80C18D2F81048B1F5CE
:10113000006F30D0A14235D002F6E44594BF641A66
:10114000C1F5006415FA81F5402C19D82144C2F884
:101150000C184FF00001C3F8F0130CBF0223012359
:1011600082F8E03C40F201120023C0E95455C0E986
:101170005643A0F8442100F5A27164F071FBC8E762
:10118000403CC3F8F04340310123C2F80C1882F808
:10119000E03C4024E6E7C2F80C581CB1294602F6B0
:1011A000E445D1E7002382F8E03CB2E7B03000200C
:1011B000B81F002038B5224DD5F8403495F858C4F2
:1011C000044623B195F844345CEA030331D001238B
:1011D000E06984F8463140F20112A4F84421026823
:1011E0001849002AA8BFC2F380739B0301EA124189
:1011F00043F020030B4363F31F42BCF1020F026074
:1012000000D038BDE278104BC4F8A8331F2000216D
:10121000C4E9EC01012A4FF00101A4F89C1308BFB6
:10122000C4F8AC3304F567712046BDE8384064F07B
:1012300017BB012162F066F895F858C4C7E700BFF4
:10124000B0300020DFBFFFFFE834002070B590F819
:10125000CF2590F8D13590F8CE5590F8D0C590F8BC
:10126000CC1590F8CD6505EB02250CEB032C90F81E
:10127000D32590F8D23503EB0223012284B080F805
:10128000112101F01F029BB2ADB21FFA8CFC012AA2
:1012900004468DF80810ADF80A50ADF80CC0ADF852
:1012A0000E30C0F840318DF809600AD0022A57D0BC
:1012B000002A3CD001F0800162F024F8002004B044
:1012C00070BD90F81231032B2BD15FFA8CFCBCF16E
:1012D000010F26D8D0F8E43502A99B689847BDF8DD
:1012E0000E30002BEAD1C4E94A33C4E94C3304215F
:1012F0004FF4807284F81111A4F81C2104F58E714A
:10130000204664F03FFA636DC44A1A61E278012A0C
:10131000D4D104F2CC545C614FF0802219681A6079
:10132000CCE7204661F0B6FF002004B070BD092E66
:10133000F7D801A252F826F0E3130008F3140008CE
:10134000231300082D150008231300085B1500085F
:10135000071400082313000871140008A1140008E2
:1013600001F0600120295FFA8CF334D0012E00F0E7
:101370006181032E00F09581002E9FD190F81221FB
:10138000022A00F01B81032ACBD11CF0800F40F011
:10139000A48103EB830300EBC30393F87633002BA4
:1013A00000F0A6819E4B0122C3F868249D4A0223C7
:1013B000C4E94E334FF48070002184F81131A4F851
:1013C0001C01C4E94C31C4E94A2204F58E7120465F
:1013D00064F0D8F972E7D0F8E43502A99B68984721
:1013E0006CE790F81231023B012B9AD88C4BD0F865
:1013F00018210021C3F8601412B10222C3F860243E
:10140000894A0223D4E72E0A022EADF8063000F0F6
:10141000CD81032E00F09181012E82D1D0F8EC35E0
:1014200080781B680DF106019847BDF80630002B47
:101430003FF444AFBDF80E20002A3FF43FAF934283
:1014400028BF13464FF480720221A4F81C21002209
:10145000C4E94A0084F81111C4E94E33C4E94C329E
:1014600004F58E712046ADF8063064F08BF925E75F
:10147000012B7FF456AF90F81221022A00F0498127
:10148000032A7FF44EAF4FF4807100F5887202207A
:10149000A4F81C11C4E94E3384F81101002190E72F
:1014A000EDB25F4E012D86F859543FF63AAF90F8F1
:1014B0001231022B00F02181032B7FF432AF002D7B
:1014C00000F07F8190F81011012910D0D0F8E43598
:1014D0005B68984796F85914D4F8E43584F81011ED
:1014E0001B6820469847D4F8E8359B689847002346
:1014F000F9E690F81231023B012B3FF612AF012DB5
:101500007FF4DCAED0F8E43500259B68C0F81851B4
:1015100002A9984704224FF48073C4E94A55C4E9EC
:101520004C5584F81121A4F81C31E7E6012D00F098
:10153000CC80022D7FF4C2AE5FFA8CF3002B7FF4D7
:10154000BDAE02694FEA1C23023B5268032B00F236
:101550005681DFE803F05B426B5F5CEA03037FF4D4
:10156000E0AE90F81221032A3FF4DBAE016905F0EA
:101570007F0680F8146108681A4665F30A12024370
:101580000A604FF480720421C4E94A33C4E94C3341
:1015900084F81111A4F81C2104F58E71204664F022
:1015A000F1F8636D1D4A1A61E278012A0DD0002E10
:1015B00000F01281022384F812317FE65A063FF4CC
:1015C0007DAE194661F09EFE78E604F2CC525A6177
:1015D0004FF0802219681A60E9E7032363F30612CB
:1015E00001210F4D84F816110421002384F81111F4
:1015F0004FF48071A4F81C11C4E94A33C4E94C3398
:1016000004F58E712046C5F864247AE6022363F35C
:101610000612E5E7052363F30612E1E71800086008
:10162000B03000201835002010350020042363F36B
:101630000612D5E790F81221022ABFD0032A7FF4C0
:1016400070AE002D7FF43AAE13F07F023FF44FAF3F
:101650001CF0800F40F0C48003EB830100EBC1015C
:1016600081F8742381F8765381F87553282101FBA2
:10167000030300EB820293F87713506D03688A1E10
:10168000012A6FF35553D4F8E4258CBFC3F30071DE
:10169000012161F31C739268036002A92046904700
:1016A00025E790F81221022A88D0032A7FF439AE68
:1016B00025B9590602D0194661F024FED4F8E43564
:1016C00002A99B682046984711E7D0F8E43502A9A3
:1016D0009B68C0F81851984709E703F07F0303EBB4
:1016E000830300EBC30393F81E31002B7FF45AAE43
:1016F000454B0022C3F8682458E6002D3FF40AAF9A
:1017000001210322D0F8E43580F8101180F812216D
:10171000E6E63E4984F811214FF480700022C4E9C6
:101720004A11A4F81C01C4E94E33C4E94C3204F553
:101730008E71204664F026F8C0E5EDB2052D3FF627
:10174000F0ADDFE805F02B231B130B03D0F8EC35CD
:1017500080789B690DF10601984766E6D0F8EC3574
:1017600080785B690DF1060198475EE6D0F8EC35AC
:1017700080781B690DF10601984756E6D0F8EC35E4
:101780008078DB680DF1060198474EE6D0F8EC351D
:1017900080789B680DF10601984746E6D0F8EC3555
:1017A00080785B680DF1060198473EE6D0F8E43595
:1017B00080789B6A0DF1060198474670C4F8F005E1
:1017C00033E60222D0F8E43580F8122180F8105177
:1017D0005B68294698479DE6012384F812316DE540
:1017E000282303FB020181F81C2100EB820281F80F
:1017F0001E5181F81D61906991F81F113EE7012388
:1018000063F30612ECE600BFB03000200C35002078
:1018100010B5044629B990F81121032A0DD00020F3
:1018200010BDD0F8E4359B69002BF8D090F8122158
:10183000032AF4D19847002010BDD0F890230B461E
:10184000D0F87C138A4213D9C078521A0128C4F800
:10185000902336D08A4228BF0A4692B2C4E9E223D6
:1018600004F55D71A4F87433204663F08BFFD6E76E
:10187000D0F8E4351B691BB190F81221032A1ED061
:1018800000234FF480720421C4E94A33C4E94C3385
:1018900084F81111A4F81C2104F58E71204663F020
:1018A00071FF636D104A1A61E278012AB7D104F220
:1018B000CC545C614FF0802219681A60AFE79847FA
:1018C000DEE78A42D4F88003A4F8743328BF0A46BE
:1018D000084492B2C4E9E22304F55D71C4F88003C0
:1018E000C4F88403C0E700BF1800086038B5044698
:1018F00049B990F81131022B11D094F81631012B0F
:1019000040D0002038BDD0F8E4355B69002BF8D01A
:1019100090F81221032AF4D19847002038BDD0F85E
:101920003831D0F82421934236D9C178012908BF33
:10193000D0F82811A3EB020318BFD0F82821C0F873
:10194000383108BF52189BB24FF480710025C0E9AE
:101950004C35A0F81C11C0E94A2200F58E7163F0E5
:1019600011FFE378C4F88053012BC4E9E255A4F8D1
:10197000745308BFC4F8845304F55D71204663F0C6
:1019800001FFBAE72A4B2269D3F86414516000239F
:1019900084F81631002038BDD0F83C31B3FBF2F5A5
:1019A00002FB1535ADB99A4213D8D0F840219342C5
:1019B0000FD24FF48073A0F81C31C0E94A55C0E93A
:1019C0004C5500F58E7163F0DDFEE378C4F84051AC
:1019D000C8E7D4F8E435DB681BB194F81221032A78
:1019E00023D0E2780023012A4FF0050108BFC4F894
:1019F0008433C4E9E23384F81111C4F88033A4F8C5
:101A0000743304F55D71204663F0BCFE636D094AD2
:101A10001A61E278012A7FF470AF04F2CC525A6165
:101A20004FF0802219681A6067E720469847D8E788
:101A3000B030002018000860F8B50B7813F060068D
:101A40000D46044620D0202E25D1CE884EB31B064D
:101A500049D5384F687832463946FEF7DDFDEB88C8
:101A60000222002684F811214FF48072C4E94E331B
:101A7000C4E94A77C4E94C36A4F81C2104F58E71F8
:101A8000204663F07FFE0AE04B780A2B17D00B2B21
:101A90000ED0062B03D1204661F0FCFB0226304617
:101AA000F8BD022248781144FEF7B6FD3046F8BD75
:101AB0008B78002B3AD1204BC3F86C64EFE70222FD
:101AC00080F811214FF48072A0F81C211B4A0123D9
:101AD000C0E94E33C0E94A22C0E94C3600F58E71A8
:101AE00063F050FEDBE7164B164A4978116003F6A7
:101AF00018020321C0E9E46680F81111C0F8886378
:101B0000C0F88023C078C3F8146801284FF00003A0
:101B1000C4F88C33A4F8743304F55D7108BFC4F8BD
:101B20008423204663F02EFE0026B8E761F0B2FB66
:101B3000B5E700BFD0270020B03000201C350020C2
:101B4000B81F002000000020002310B519460446ED
:101B5000402263F0A7FD802120460023402263F04D
:101B6000A1FDD4F8E835A078012284F812215B6841
:101B70009847002010BD00BF10B502230446402244
:101B8000812163F08FFD204602234022012163F072
:101B900089FD204603230822822163F083FD0E4B3A
:101BA0000222A3F84C20FEF723FDE2780B4BC4F889
:101BB000A83340200021C4E9EC01012A4FF00101C3
:101BC000A4F89C13204604F5677108BFC4F8AC3331
:101BD00063F046FE002010BD00000020A434002069
:101BE00070B5812182B00446314E63F029FD012198
:101BF000204663F025FD0025022340228121204656
:101C000086F88C5963F04EFD0121022340222046C4
:101C100063F048FD274B86F88C59D3F8702483F87D
:101C200058541268284690470095009BE16843F09D
:101C300010030093009B0B610A691F4B009203E0A5
:101C40000A690092013B02D0009AD006F8D4002322
:101C50000193019B43F020030193019A164B01204D
:101C600060F38A120192019A0A610A69019203E003
:101C70000A690192013B02D0019A9206F8D4E278F7
:101C80000E4BC4F8A83300211F20C4E9EC01012A3F
:101C90004FF00101A4F89C1304F5677105D02046AC
:101CA00063F0DEFD002002B070BDC4F8AC33F6E78F
:101CB000B81F0020B0300020400D0300E8340020A1
:101CC00010B5144CD4F8803943B119689A880B695F
:101CD0001A4203D1002384F8543910BD94F85439C2
:101CE000032B10D894F848390133DBB2072B84F862
:101CF0004839EFD8084A0123D2F8EC23C4F8442924
:101D000084F8543910BDD4F88409002107F0EAFBA7
:101D1000E8E700BFB81F0020B03000202DE9F047F1
:101D2000294FDFF8AC90294CDFF8A8A082B000F171
:101D30000108002606E09DF80700FF282FD1013694
:101D400046452CD0D7F8845995F91030AA6803EB92
:101D5000830309EB83039207186E23D50123002226
:101D60000DF1070164F042F9AB689B07E3D4D7F8A3
:101D7000882961684FF4FA7303FB02F2AAFB02326E
:101D8000920963685B1A9A42FBD26B69002BD2D02E
:101D90009DF807001A689B881383FF28CFD002B0F4
:101DA000BDE8F0876B6913B11A689B885383D7F835
:101DB00088296168D200AAFB0232920963685B1A23
:101DC0009A42FBD2CAE700BFB81F0020001000E013
:101DD00000000020D34D621070B5044608200D4667
:101DE000FFF79CFFFF2814D0FE2801D0022070BD11
:101DF000094E2B46D6F884092146002264F046F9A4
:101E00000022D6F884090223114664F03FF900202D
:101E100070BD012070BD00BFB81F002070B52F4CF1
:101E20002F4AD4F8845995F9103003EB830302EB61
:101E30008303AA6882B000204FF6FF519207C4F8CE
:101E40005009ADF80410186E34D5022301AA002100
:101E500064F0CCF8AB689B0715D50120FFF75EFF57
:101E6000FF280AD01F4BD3F8EC33C4F844390922B9
:101E7000002084F8542902B070BD0423022084F8A5
:101E8000543902B070BDD4F888391749174E4868E4
:101E90004FF4FA7203FB02F2A6FB023292094B687E
:101EA0001B1A9A42FBD26B69002BD6D01A689B880A
:101EB0001383D2E76B6913B11A689B885383D4F8F4
:101EC00088290949094B4E68D200A3FB02329209C6
:101ED0004B689B1B9A42FBD2B7E700BFB81F00209C
:101EE00000000020B0300020001000E0D34D621050
:101EF00070B582B004460B0E080C0A0A44F0400587
:101F00008DF8013095238DF800508DF802008DF882
:101F100003208DF804108DF8053064F0FFF808B93F
:101F2000002C44D1234D244AD5F8844994F910302B
:101F3000A16803EB830302EB83038A07186E0CD5B9
:101F400006236A46002164F051F8A3689B0717D561
:101F50000820FFF7E3FE02B070BD636913B11A6891
:101F60009B885383D5F888291449154B4E68D200B5
:101F7000A3FB023292094B689B1B9A42FBD2DFE71C
:101F8000D5F888290D490E4B4FF4FA7000FB02F288
:101F9000A3FB0232486892094B681B1A9A42FBD293
:101FA0006369002BD4D01A689B881383D0E7FF2085
:101FB00002B070BDB81F002000000020001000E03B
:101FC000D34D62102DE9F0412E4C82B00546884673
:101FD00017461E4694F8540904280DD0082807D146
:101FE000D4F84C39AB4247D0FFF718FF0228F1D0A4
:101FF000012002B0BDE8F081D4F8840907F07CFB31
:1020000094F84A3983BB69021820FFF771FF68BB57
:1020100094F85439082B4FF0FF038DF804300CBFAF
:10202000FC23FE23D4F884098DF8053001AA02238D
:10203000002164F02BF8D4F8840942468023002163
:1020400064F024F8012206230020C4F83089C4F883
:102050003459C4F83C79C4F8406984F8382984F8C4
:10206000543902B0BDE8F0812946CDE7FEF744FBC4
:10207000FFF726FE0320BCE7FF238DF80430FC2386
:10208000D0E700BFB81F002070B51F4C94F854393A
:10209000042B06460D4609D0082B25D1D4F84C391F
:1020A00083422FD0FFF7BAFE02281DD1D4F884094D
:1020B00007F022FB00213720FFF71AFF29461720DF
:1020C000FFF716FFC0B994F84A397BB9710219209D
:1020D000FFF70EFF80B9082384F85439C4F850592B
:1020E000C4F84C69022070BD012070BD3146192032
:1020F000FFF7FEFE0028EED0FEF7FEFAFFF7E0FD48
:10210000032070BD022070BDB81F00202DE9F041F2
:102110001C4C054694F854090428884617461E4668
:1021200008D0082802D00020BDE8F081FFF776FE35
:102130000228F8D1D4F8840907F0DEFA94F84A3975
:10214000BBB969021120FFF7D3FEC0B90E4BC4F82A
:102150003089D3F8EC33C4F83459052284F8542973
:10216000C4F83C79C4F84069C4F844390120BDE89A
:10217000F08129461120FFF7BBFE0028E6D0FEF7CC
:10218000BBFAD0E7B81F0020B03000202DE9F043A3
:10219000844CD4F8840987B0002836D094F85409C8
:1021A000814D824E824F431E082B1CD8DFE813F06E
:1021B0009400BF0042011B000900590041001B00B0
:1021C0003000D4F830094FF40071FFF705FE012804
:1021D00000F09681022800F09B81002800F0CC815D
:1021E00094F85409431EDBB2022B00F2D6806E4BEA
:1021F000D4F84429D3F8EC339B1AC82B00F29E8103
:10220000A0F10800B0FA80F0400907B0BDE8F08303
:1022100063F084FF002840F06382D4F84439D5F895
:10222000EC23FA339342DBD2FFF74AFD94F85409CA
:10223000B9E763F073FF0028EFD0D4F850390022DB
:10224000012B84F8482940F25382D4F84C29013BF1
:1022500001320820C4F85039C4F84C2984F85409D4
:10226000CEE7D4F8303994F83829D4F8840903EB50
:10227000C2120021802363F009FF94F8383901333A
:10228000DBB2042B84F83839AAD1D4F884090223AC
:102290003246002163F0FAFE0123D4F884090022BB
:1022A00002A963F0F3FE9DF8083003F01F03052B2D
:1022B00000F0FD81FFF704FDD4F83C89B8F1000F70
:1022C00000F039810120D4F84039D4F834190022C3
:1022D000C04794F8540966E7D4F8840907F00CFA6B
:1022E00000210846FFF704FE8046FEF705FAB8F124
:1022F000010F7FF475AFD4F884094FF0000984F81A
:10230000499907F0F9F940F2AB110820FFF7F0FD09
:10231000052800F01881012800F06181FEF7ECF932
:1023200094F84909002899D0022384F85439D4F844
:10233000840907F0E1F994F84939022B0CBF4FF0FA
:1023400080484FF0000800213720FFF7D1FD4146BB
:102350002920FFF7CDFD8046FEF7CEF9B8F1000F3A
:102360007FF43EAF94F84939022B00F01B8184F8CA
:102370004A89D4F884391A79022A00F0E7800021CA
:102380000920FFF7B5FDA8B1FEF7B6F994F8540996
:10239000431EDBB2022B7FF62AAF04287FF430AF56
:1023A000012032E7B81F0020B030002000B7060837
:1023B000D34D6210D6481021FFF70EFD0028E3D15F
:1023C00094F87F39DB07DFD594F87019891100F094
:1023D0001C810129D8D194F87729DFF840E39200D5
:1023E000D2B216214FF0020CCCF108038B4228BF69
:1023F0000B46C3F1080C42FA0CF29840C91A40EAA5
:1024000002004FF0000C1EF8012FEDD1431C9B027F
:10241000C4F85839FEF770F9D4F8840907F06CF95C
:1024200000210A20FFF764FD002840F0E780032325
:1024300084F85439102102A8FFF7CEFC00287FF45D
:10244000CFAE9DF8083084F85E39BDF809309DF8AC
:1024500016209DF810105BBAA4F85C399DF80B307B
:1024600084F85F399DF80C3084F860399DF80D30A0
:1024700084F861399DF80E3084F862399DF80F3088
:1024800084F863399DF815301B01DBB243EA12135F
:1024900002F00F0203F5FA6384F86C29DDF81120CD
:1024A000A4F86A390B0912BA84F8683901F00F03ED
:1024B00084F86939C4F86429FEF71EF994F84A399A
:1024C0007BB9D4F8840907F017F94FF40071102094
:1024D000FFF70EFD8046FEF70FF9B8F1000F7FF40D
:1024E000A3AED4F88409022106F0FCFF00220423E5
:1024F0000120C4F8502984F8543907B0BDE8F083AE
:10250000D4F84439D5F8EC2364339342BFF468AE71
:10251000FEF7F2F8FFF7D4FBD4F83C89B8F1000FCE
:1025200009D000221046D4F84039D4F83419C047F5
:1025300094F8540937E694F8540934E6FFF7C0FBE1
:1025400094F8540929E784F84989E7E69A689207DC
:102550007FF515AF5B6913B11A689B885383D4F874
:1025600088396C49DA00A7FB0232486892094B6847
:102570001B1A9A42FBD202E70190FEF7BDF8D4F88D
:102580003C59019884F84809042384F85439002DF3
:102590003FF406AFD4F84039D4F83029D4F83419D0
:1025A000A8471DE6D4F8840907F0A6F841463A206A
:1025B000FFF79EFC424681460423D4F8840902A911
:1025C00063F064FDFEF798F8B9F1000F7FF42CAECC
:1025D000029B1BBAC3F3807384F84A39C9E604230B
:1025E000D4F884094A4602A963F050FD9DF80B30E7
:1025F000AB2B04BF022384F849398FE6FEF77CF841
:10260000FFF75EFB94F85409CDE594F8753994F81A
:102610007909DFF80C8103F00F0380014FF0010C02
:102620000CFA03FC5FFA80F903234FF0060ECEF19B
:1026300008029A4228BF1A46C2F1080049FA00F07F
:1026400091409B1A18F8019F41EA00014FF0000EDB
:10265000EDD194F87689DFF8CC904FEA88180231F2
:102660005FFA88F80C20062200E00022C2F108027E
:10267000824228BF0246C2F1080E48FA0EFE93407D
:10268000801A19F8018F4EEA0303EED1013303FAE1
:1026900001F14FEAEC72A1FB0C3C01FB02C15B0AA9
:1026A00043EAC153C4F85839FEF726F8B4E61A4B8A
:1026B000D4F83C59D3F8EC33C4F84439072084F8F3
:1026C0005409002D3FF49CADD4F84039D4F830299A
:1026D000D4F834190120A84794F85409431E82E520
:1026E0000190FEF709F80423019884F854398CE529
:1026F00008D0042384F85439FDF7FEFF94F85409F8
:10270000431E70E5FFF78AFB02287FF469AD3BE6C4
:1027100028290020001000E0B03000202F290020E0
:10272000312900202E290020F8B500220C23332166
:10273000022008F0DFFA374FC7F88409002866D076
:10274000002106F0CFFE4FF47A760BF0EBFA044648
:102750000D460BF0E7FA031B61EB0502B3F57A7F38
:1027600072F10003F5D3013EEFD1D7F88409037964
:10277000022B32D000220A23114663F087FCD7F8DF
:102780008409254C03792549022B0CD190F910308E
:1027900003EB830301EB83031B6E1A8992070ED5AB
:1027A0001B891B060BD41E4B0122D3F8EC13C7F870
:1027B0004419002387F8542987F84839F8BD013CAB
:1027C000E4D108F03DFA97F84839C7F88449013355
:1027D00087F8544987F84839F8BD83689907C9D5FF
:1027E000D7F888390F49104D4C684FF4FA7203FB43
:1027F00002F2A5FB023292094B681B1B9A42FBD2E4
:102800004369002BB6D01A689B881383B2E787F818
:102810005409F8BDB81F0020A18601000000002067
:10282000B0300020001000E0D34D62101049114B71
:10283000D1F8882042F4700210B4C1F888201A68D8
:102840000D4C002042F001021A6098601A6822F0D4
:10285000847222F480321A605C601A68074C22F499
:1028600080221A60D8608C605DF8044B704700BF0E
:1028700000ED00E0003802401030002400000008A5
:10288000704700BF2DE9F84346697EB9D0F8008053
:10289000C8F30D0904460F46B9F1000F26D03F6872
:1028A000FDF73CFD092804D06FF001063046BDE875
:1028B000F8834A4D2B6923F440732B612B6943F451
:1028C00000732B612B6943F001032B61C8F8007082
:1028D000FDF724FD2B69092823F001032B61E3D1C7
:1028E0002368043323603046BDE8F8833C4B9845A9
:1028F0002AD303F58043984524D303F580439845B4
:1029000054D3384B984554D903F58033984553D95F
:1029100003F50033984552D903F50033984551D952
:1029200003F5003398453ED903F5003398454CD95B
:1029300003F5802398454BD9B8F1016F4BD305209F
:102940000BF04CFA4FF00809FDF7E8FC092804D019
:102950004FF0FF363046BDE8F883204D2B6923F455
:1029600040732B612B6943F400732B612B6923F0B7
:10297000F8032B612B6943EA090343F002032B613F
:102980002B6943F480332B61FDF7C8FC2B6923F0DE
:1029900002032B612B69092823F0F8032B61D7D19F
:1029A000D4F800807BE74FF03809CDE74FF01009ED
:1029B000CAE74FF01809C7E74FF02009C4E74FF006
:1029C0002809C1E74FF03009BEE74FF04009BBE7E7
:1029D0004FF04809B8E74FF05809B5E7003C02400E
:1029E00000400008FFFF00080148FDF713BC00BFCE
:1029F000280100200148FDF70DBC00BF7403002032
:102A00000148FDF707BC00BFC00500200148FDF7E5
:102A100001BC00BF0C0800200148FDF7FBBB00BF54
:102A2000580A00200148FDF7F5BB00BFA40C0020A8
:102A3000704700BF704700BF024B0348D3F87414BF
:102A4000FEF744BAB03000200000014010B5064C3B
:102A50000648D4F87414FEF739FAD4F894140448EC
:102A6000BDE81040FEF732BAB0300020000001404F
:102A70000040014010B5064C0648D4F87414FEF727
:102A800025FAD4F898140448BDE81040FEF71EBAA1
:102A9000B0300020000001400044014010B5064C59
:102AA0000648D4F87414FEF711FAD4F89C140448BC
:102AB000BDE81040FEF70ABAB03000200000014027
:102AC00000480140034B4FF08040D3F87814FEF7E4
:102AD000FDB900BFB0300020024B0348D3F87C148E
:102AE000FEF7F4B9B030002000040040024B034868
:102AF000D3F88014FEF7EAB9B03000200008004097
:102B0000024B0348D3F88414FEF7E0B9B03000203C
:102B1000000C0040024B0348D3F89014FEF7D6B9DE
:102B2000B03000200004014010B5064C0648D4F82F
:102B30009014FEF7CBF9D4F8A0140448BDE8104077
:102B4000FEF7C4B9B0300020000401400018004076
:102B500010B5064C0648D4F89014FEF7B7F9D4F82F
:102B6000A4140448BDE81040FEF7B0B9B03000200E
:102B700000040140001C004010B5064C0648D4F883
:102B80009014FEF7A3F9D4F8A8140448BDE8104047
:102B9000FEF79CB9B0300020000401400020004046
:102BA0000348D0F8F83E13B100F6EC6018477047C0
:102BB000000000200348D0F8183F13B100F60C7055
:102BC00018477047000000200348D0F8383F13B181
:102BD00000F62C7018477047000000200348D0F81A
:102BE000583F13B100F64C701847704700000020A2
:102BF0000348D0F8783F13B100F66C70184770475F
:102C0000000000200348D0F8983F13B100F68C7004
:102C100018477047000000200348D0F8B83F13B1B0
:102C200000F6AC7018477047000000200348D0F849
:102C3000D83F13B100F6CC70184770470000002051
:102C40000348D0F8F83F13B100F6EC70184770470E
:102C500000000020024883690BB10C301847704710
:102C6000001000200248836B0BB12C3018477047CE
:102C7000001000200248836D0BB14C30184770479C
:102C8000001000200248836F0BB16C30184770476A
:102C9000001000200348D0F898300BB18C30184752
:102CA000704700BF001000200348D0F8B8300BB1C7
:102CB000AC301847704700BF001000200348D0F820
:102CC000D8300BB1CC301847704700BF001000203F
:102CD00002683649002310B422F001022124884200
:102CE0000260036043608360C3600361446138D065
:102CF0002F4B98422ED02F4B98423CD02E4B9842CF
:102D000040D02E4B984232D02D4B984241D02D4B83
:102D1000984246D02C4B984217D02C4B98423CD02E
:102D20002B4B984216D02B4B984224D02A4B9842DA
:102D300028D02A4B98421AD0294B984229D0294BA7
:102D400098422ED0284B984208D14FF03D5243F87C
:102D5000AC2C03E04FF4746243F8202C5DF8044B74
:102D60007047224B5DF8044B3D229A607047204A21
:102D700043F8642CF2E74FF474125DF8044B43F807
:102D8000382C70474FF074625DF8044B43F8502CB8
:102D90007047184A43F87C2CE0E73D2243F8082CA2
:102DA000DCE7154A43F8942CD8E700BF10600240D6
:102DB000286002404060024058600240706002405B
:102DC00088600240A0600240B86002401064024087
:102DD000286402404064024058640240706402402B
:102DE00088640240A0640240B8640240006002406F
:102DF0003D000020400F002000003D2000222DE972
:102E0000F04713460D684FF0010E032604E001332E
:102E1000102B02F1020239D00EFA03FC3CEA050441
:102E2000F5D1076806FA02F427EA040707600F796C
:102E3000D0F800A007FA02F9013F49EA0A09012F78
:102E4000A046C0F800906FEA040411D887683C409F
:102E500084604C79876894403C438460446824EAE9
:102E60000C0444608C7947689C40A4B23C434460A5
:102E7000C46824EA0804C460CC79C768944001336C
:102E80003C43102BC46002F10202C5D1BDE8F087BB
:102E90002DE9F0412348244F244E254C82B038229E
:102EA000002168F064FB002557F825103246002306
:102EB00001E054F8332091422ED001330E2BF8D18B
:102EC0000020053560F072FC322DEDD1DFF858801E
:102ED000184F08F1C8054FF0007698F8040007F085
:102EE000F3FC08F11408044688B1036803F13F437A
:102EF00003F57E0307EB932393F8CC0060F056FCB8
:102F0000A3880196206800936946FFF777FFA845DC
:102F1000E3D102B0BDE8F081064A02EBC30393F8A7
:102F20006000CEE724350020EC10002000000140B6
:102F300004B70608A8B60608224A936803F00C03F3
:102F4000042B10B421D0082B22D01F4B03601D4C42
:102F50001E4AA168C1F30311114491F8BC10CB4083
:102F60004360A168C1F38221114491F8BC1023FA97
:102F700001F18160A1685DF8044BC1F342310A445C
:102F800092F8BC20D340C3607047114B0360DEE76A
:102F90005368516813F4800F01F03F01536814BF68
:102FA0000B4A094AB2FBF1F1064A5268C2F30142E8
:102FB000C3F38813013201FB03F35200B3FBF2F3B6
:102FC0000360C4E7003802400024F400F810002039
:102FD00000127A0070B5446B8668A38923F400530D
:102FE0001B041B0CA38182790546407912F0040F63
:102FF00014BF4FF4805C4FF0000C110310F0010F70
:103000004FEA02220CBF0023042302F480628007EF
:1030100048BF43F0080342EA0C021343228A92B2EB
:1030200001F4005122F440520A432282A28922F480
:10303000B05222F00C021204120C1A43A281A38A8D
:1030400023F440731B041B0C84B0A3826846FFF773
:1030500073FF2F4B9C4205D003F580639C4201D047
:10306000029A00E0039AA3892A491B0402EB820218
:103070004CBF7300B30002EB8202B2FBF3F3A1FB7F
:103080000302A08952096426000406FB12334FEAAA
:10309000021228D41B013233A1FB0313C3F34313E1
:1030A00013439BB223816A796B6BA879960702F070
:1030B0000101194A48BF41F0020193421BD00107A8
:1030C0009A8A0AD592B242F008029A829A8992B2FA
:1030D00042F400529A8104B070BD22F0080212043A
:1030E000120C9A82F2E7DB003233A1FB0313C3F325
:1030F00042131343D5E7CD07E1D5084AD2F8C41CE3
:10310000B2F8C82CC4074CBF0A834A83D7E700BF74
:10311000001001401F85EB5100140140B81F002032
:103120002DE9F843394C9DF820509DF82490A04299
:103130000F4690461E4649D0354B98424ED0354BEF
:10314000984253D0344B98422BD0344B984255D0B0
:10315000334B984221D14B462A4631460520FDF794
:10316000EFFD04460023C4E90B78C4E90733C4E942
:1031700009336571A66084F806902046FFF72AFFA0
:10318000EA07616B1AD4AB0713D48B899BB243F463
:1031900000538B812046BDE8F88300242046BDE81B
:1031A000F8834B462A4631460320FDF7C9FD044605
:1031B000D8E7CB6843F08003CB60E6E74FF6DF73D8
:1031C0000B80CB6843F02003CB60DCE74B462A46FC
:1031D00031460020FDF7B4FD0446C3E74B462A46BE
:1031E00031460120FDF7ACFD0446BBE74B462A46BD
:1031F00031460220FDF7A4FD0446B3E74B462A46BC
:1032000031460420FDF79CFD0446ABE70010014069
:103210000044004000480040004C00400050004086
:10322000001401408160D5E64171D3E62DE9F043F9
:10323000DFF8148208EBC00985B00546C70099F88D
:10324000D00007F041FB044699F8D10007F03CFBA1
:10325000064699F8D20060F0A9FA6B1CDBB2002C8C
:1032600000F0AD8040F60B122372E280002E00F0D9
:10327000C380337240F60B232046F38004223A21A8
:1032800007F0FAFC042230463A2107F0F5FC08EB7F
:103290000703624AD3F8CC40944200F09880604B18
:1032A0009C4200F09E805F4B9C4200F0AB80474404
:1032B00097F8D320022A5CD0032A7ED05A4B5B4E6B
:1032C000012A18BF1E46A7886846FFF735FE27F07B
:1032D0003F07029B564AB3FBF6F63F04A2FB0323CB
:1032E0003F0C47EA9347A780228822F0010212048C
:1032F000120C2280B2B2C6F30B069B0C002E59D0E2
:103300004FF4967101FB03F34A49A1FB03139B0998
:1033100001339BB242F400422384A2832388464AAD
:103320009BB243F001032380238823F4816323F0BD
:1033300002031B041B0C4FF4804143F48063238081
:103340002181238823F080031B041B0C2380238806
:103350009BB202EB451243F00103238001210023BD
:1033600082F8B05482F8B11482F8B23405B0BDE8E6
:10337000F083A6886846FFF7DFFD26F03F06029A35
:103380002B4B3604A3FB0213360C46EA9346A68069
:10339000218821F001010904090C21809B0C274997
:1033A000013392092384A1FB02329209042A38BF17
:1033B0000422B2E742F00102A2E7214E83E7002E89
:1033C0003FF465AF337240F60B23F3805AE71D4B91
:1033D0001A6A42F400121A621A6A22F400121A627D
:1033E00065E703F5F0331A6A42F480021A621A6A3A
:1033F00022F480021A625AE7042220463A2107F09A
:103400003BFC44E703F5EE331A6A42F400021A6209
:103410001A6A22F400021A6249E700BF0054004011
:1034200000580040005C0040804F1200009F2400C4
:1034300083DE1B43D34D6210B0300020632D3E0568
:10344000C027090000380240F81000202DE9F0479D
:10345000954D90F900108046807805EBC106013843
:10346000CC0090B0D6F8CC1014282ED8DFE810F09D
:1034700053012601150057006100A200AA00CB01EC
:10348000BD017D00870045020D02E001C500D500A9
:1034900030003800AA019C015B01888A0C8B81B244
:1034A000824841EA044130EA010100F02681D8E96E
:1034B0000210521A42F2107163EB00038A4273F158
:1034C000000302D3152388F8023010B0BDE8F0875E
:1034D00098F813000882C8E90223122088F8020035
:1034E000888A0C8B80B240EA0440714C34EA0000B8
:1034F00000F0B68000200E900F9001200F910E90EA
:103500000E99002900F01E820F9914310F910F9926
:1035100009684905CBD5142388F80230D5E798F817
:10352000110000F0FE000882C8E90223052088F897
:103530000200888A0C8B80B240EA04405D4C34EA79
:10354000000000F0A4800020009001900120019173
:1035500000900099002900F0018201991431019135
:10356000019909684F05D6D4A1E798F8110040F0F9
:1035700001000882C8E902230B2088F80200888A2B
:103580000C8B80B240EA04404B4C34EA00006FD010
:1035900000200490059001200591049004990029D1
:1035A00000F0D681059914310591059909684D05FA
:1035B000B1D47CE798F813000882C8E902230720F9
:1035C00088F80200888A0C8B80B240EA0440384CAC
:1035D00034EA00005FD000200290039001200391A4
:1035E00002900299002900F0C581039914310391DA
:1035F000039909684E058ED459E7088820F4806045
:103600000004000C088098F8110000F0FE00088209
:10361000C8E90223102088F80200888A0C8B80B247
:1036200040EA0440234C34EA000012D000200C9001
:103630000D9001200D910C900C99002900F09481BF
:103640000D9914310D910D99096848053FF563AF47
:103650002DE798F81330FF2B06D198F810301BB1E6
:10366000132388F8023030E7112388F802302CE762
:10367000D8F81400012800F09381022800F0498254
:103680000E20098B88F80200C8E902231DE70623F3
:1036900088F8023019E7D8F81400002800F070818B
:1036A000082388F8023010E7F8100020010003001A
:1036B000840007008200070002000300088820F44D
:1036C00000600004000C0880088880B240F480602C
:1036D0000880088880B240F480700880032088F851
:1036E0000200888A0C8B81B2AB4841EA0441C8E9E8
:1036F000022330EA01037FF4E8AE98F81230002B81
:1037000040F0D38198F81330FF2B00F04682042359
:1037100088F80230D9E6098889053FF5C8AE00234C
:1037200088F80230D1E62C4494F8D00007F0CCF8A9
:10373000064694F8D10007F0C7F8984AB2F8103559
:1037400001339BB28246A2F8103516B13368B288B5
:103750001A83BAF1000F04D0DAF80030BAF8042066
:103760001A831121304605F093FE1121504605F0D1
:103770008FFE4FF0090965272EB13368B2881969A9
:103780000A4240F02881013F00F022810AF0CAFA83
:1037900004460D460AF0C6FA001B61EB0501052838
:1037A00071F10003F6D3E7E7088880B240F40070B7
:1037B00008804FF6FF3088820121C8E9022388F88B
:1037C000021082E6D8F81400002800F07281D8F8C0
:1037D000184014F8016B0E8201381225C8E905045F
:1037E000C8E9022388F802506FE6888A0C8B81B200
:1037F000694841EA044130EA01017FF458AE0A23E6
:1038000088F8023061E6088880B240F48070088051
:10381000092088F80200888A0C8B81B25E4841EA50
:103820000441C8E9022330EA01037FF44EAEE6E723
:10383000002401250A940B940B910A950A980028FC
:1038400000F04A810B9814300B900B9800684607E3
:103850007FF52DAED8F81400032800F072810228FD
:1038600000F24681088820F480600004000C088083
:10387000088880B240F400700880098A88F81C40EB
:10388000C8E9022388F802501FE6002001240890AE
:103890000990099108940898002800F01781099868
:1038A000143009900998006847077FF500AEEFF3E0
:1038B0001185102080F31288088880B240F40070CF
:1038C0000880D8F818000E8A471CC8F81870EDB2A6
:1038D000067085F311880D8AD8F818106FF0010072
:1038E0004E1CC8F818600D70C8E90223C8F814000F
:1038F00088F81C4088F80240E7E500200690079011
:10390000012007910690069C002C00F0EB80079C9C
:1039100014340794079C246864067FF5C8AD0C8AAC
:10392000D8F818104D1CC8F818500C70D8F814109E
:1039300088F81C000139C8E90223C8F8141088F877
:103940000200C2E50F9918310F910F990968AEE591
:1039500005991831059105990968A8E5019918316B
:10396000019101990968A2E50D9918310D910D9900
:1039700009689CE50399183103910399096896E554
:10398000088880B240F4007008800121C8E9022351
:1039900088F8021099E500BF01000300B030002054
:1039A000088820F480600004000C0880EFF3118484
:1039B000102080F31288088B088880B240F40070D1
:1039C000E4B2088084F311880C2188F802105BE6C9
:1039D00016B13368B2885A830AF0A4F904460D463A
:1039E0000AF0A0F9031B61EB0501052B71F100033F
:1039F000F6D316B13368B2881A830AF093F90446F5
:103A00000D460AF08FF9031B61EB0501052B71F1DF
:103A10000003F6D3B9F101097FF4ADAE16B13368F6
:103A2000B2885A830AF07EF904460D460AF07AF904
:103A3000031B61EB0501052B71F10003F6D3BAF10D
:103A4000000F04D0DAF80030BAF804205A830AF0E4
:103A500069F904460D460AF065F9031B61EB05019F
:103A6000052B71F10003F6D316B13368B2881A83BF
:103A70000AF058F904460D460AF054F9031B61EBAD
:103A80000502052B72F10003F6D3BAF1000F04D042
:103A9000DAF80030BAF804201A8398F90000441CC0
:103AA0003FF43DAEFFF7C2FB39E60F2388F8023042
:103AB0000BE5088880B240F4007008800121C8E955
:103AC000022388F81C1088F80210FEE409991831C6
:103AD000099109990968EAE40B9918310B910B993E
:103AE0000968E4E407991831079107990968DEE449
:103AF000D8F81800098A441CC8F818400170D8F892
:103B00001410C8F808200139C8F81410C8F80C308F
:103B1000DBE4088880B240F400600880EFF3118491
:103B2000102080F31288088B088820F4806000043D
:103B3000000CE4B2088084F311880D2188F802108B
:103B4000A2E5088820F480600004000C0880EFF3F0
:103B50001184102080F31288D8F818000D8A461CB2
:103B6000C8F818600570088880B240F40070E4B2AC
:103B7000088084F31188D8F81800098A441CC8F812
:103B800018400170D8F814100C200239C8E902233B
:103B9000C8F8141088F8020097E498F81030002B49
:103BA0003FF4B5AD2BE600BF38B5184D9DF814E0D5
:103BB00005EB40144FEA401C94F8B10400B938BD3D
:103BC000490084F8C324C4F8C43484F8C114002321
:103BD000049984F8C0E4022205F5966584F8C2349D
:103BE000C4F8C81484F8CC3484F8B22465440AF0CC
:103BF00099F802460B462846FFF728FC94F8B234A1
:103C0000002BF4D194F8CC0438BD00BFB0300020B4
:103C100038B5184D9DF814E005EB40144FEA401CF0
:103C200094F8B10400B938BD84F8C324C4F8C4348E
:103C300001220023490005F5966584F8C22484F822
:103C4000CC34049A84F8C0E4022384F8C114C4F884
:103C5000C82484F8B23465440AF064F802460B467E
:103C60002846FFF7F3FB94F8B234002BF4D194F814
:103C7000CC0438BDB0300020F0B587B00023824AB4
:103C800000930193136843F48033136003E0009BB7
:103C9000B3F5A04F09D0136803F400330193009BE0
:103CA00001330093019B002BF1D0774B1B6813F479
:103CB000003318BF01230193019B012B01D000BFEA
:103CC000FDE7714B71491A6C714842F080521A64D9
:103CD0000A6842F440420A609A689A609A6842F41C
:103CE00000429A609A6842F4A0529A6058601A683A
:103CF00042F080721A601A689201FCD5654A40F25F
:103D000005711160996821F003019960996841F08B
:103D10000201A2F580629960936803F00C03082BFE
:103D2000FAD1936803F00C03042B00F08C80082B6D
:103D300000F08E80584D594BC5F8E430524BD5F801
:103D4000E4109A68564C5748C2F303122A440026DE
:103D500092F8E820D140544AC5F8E410E260534A92
:103D6000596FA260596B524A21F080015963596F13
:103D700041F080715967196B0A431A635A6B5A6391
:103D80009A6B9A631A6C4B490A431A64596C4A4AF3
:103D90000A435A6402A948F2FF7302934FF6FF7771
:103DA0000396FFF72BF800F580600297FFF726F8DF
:103DB00000F580600297FFF721F800F58060FFF7BB
:103DC0001DF800F58060FFF719F800F58060FFF737
:103DD00015F800F58060FFF711F800F58060FFF737
:103DE0000DF800F58060FFF709F80846FFF7A4F822
:103DF000D4F8FC30029A3149314843F08073C4F85A
:103E0000FC30304BC3F8B01F5E60196841F001010F
:103E10001960D5F8E4304FF47A71B3FBF1F3013B4C
:103E2000B3F1807F2849B2FBF1F2C0F8882908D2AB
:103E30004FF0E022F0215361072384F823109661AC
:103E4000136107B0F0BD144D204BC5F8E43075E7A1
:103E500053685168104D13F4800F01F03F0153680F
:103E600014BF1A4A0D4AB2FBF1F1074A5268C2F375
:103E70000142C3F38813013201FB03F35200B3FB89
:103E8000F2F3C5F8E43059E7003802400070004012
:103E900008544007003C0240F81000200024F400C1
:103EA00000ED00E0000002400003FA0500000008F9
:103EB000FF916700FFC9FE103357070055CEACC510
:103EC000B81F0020001000E040420F0000127A00EE
:103ED00082B0064B002201920193019B03EB80000C
:103EE0000190019B196002B0704700BF502800404C
:103EF00010B51C2006F0E8FC1121044605F0C8FAB4
:103F00004CB12368A2885A83C82009F039FF23687E
:103F1000A2881A8310BDBDE81040C82009F030BF48
:103F2000704700BF704700BF704700BF10B5124C0C
:103F300094F81E3523B9114B4FF480225A6110BDFD
:103F40004FF0E022D2F8103D23F00603C2F8103DF6
:103F5000FEF76CFC94F81E35002BECD0D4F8243519
:103F60009B68DB07E7D5D4F82026136823F003010C
:103F700061F307031360DEE7B0300020003C01402E
:103F80002DE9F04FB34CD4F820355A69D2078BB0E5
:103F900002D50BB0BDE8F08F5A699B6912EA03099C
:103FA000F7D0C9F3074319F4002F009340F0E180E4
:103FB000009B590743D419F0020F5FFA89F603D02A
:103FC000D4F8203502225A61B9F1000FC0F2EE8117
:103FD00019F4006FC9F3072540F04A81330708D56B
:103FE0009D4B9E48D3F804319847D4F820350822D9
:103FF0005A61F70600F1C481EE0600F16F81A9064F
:1040000000F1E880009BDA0609D5934B9348D3F87A
:1040100014319847D4F820354FF480125A61009B30
:104020009B06B6D58C4B8D48D3F818319847D4F8F9
:1040300020354FF400125A610BB0BDE8F08FD4F870
:1040400024259369D26913401FFA83FABAF1000F4D
:10405000B1D0DFF81882CDF80C90A8F11805002730
:104060001AF0010F78D0FEB2D4F8242504EB8603B1
:104070001069D3F82C15536B8968F340DB01DBB270
:1040800003430B4013F00109D9B240F0AB810A079A
:1040900040F1C881D8F8002008239360994619F0B0
:1040A000800F59D0D5E94CC0D5F82431D8F800E0BC
:1040B000ACEB00018B42DEF8182028BF0B4692B211
:1040C0000333B2EB930F47D9D4F8242594F817950E
:1040D000323604EB8603CDE901786746984694466C
:1040E000874237D9D5F82431391A994228BF194661
:1040F00001F1030BD5F828314FEA9B0BB9F1000F02
:1041000010D18AB203329210D8F81C650AD0484602
:10411000013053F8047B37608242F9D1D5E94C7005
:10412000D5F8283108440B44B842C5F82831C5F801
:104130003401DEF818300AD195F81C11012202FA78
:1041400001F1DCF8342022EA0102CCF834209BB2E1
:104150009B45C5D3DDE901785FEA5A0A07F10107FB
:1041600008F1040805F128057FF47AAFDDF80C901A
:1041700021E7D4F824359D69DB691D402D0C3FF4FF
:1041800017AF04F21458DFF8D0B004F5AD6600277D
:10419000C24608E06D0807F1010706F1040608F1C0
:1041A00028083FF405AFEB07F4D5F9B204EB81031F
:1041B000D4F82425D3F868359B6852691340D80792
:1041C000DAB200F13F81930740F167813368022240
:1041D0009A60DFE7D4F82435D4F82C159A6808687B
:1041E000C2F34102022A06BF032262F30A006FF300
:1041F0000A0008605A6842F480725A6006A8FEF706
:104200009BFED4F82025D4F82415D368079D6FF3BE
:104210008D23D36088681249C0F34100014491F8AE
:10422000D410032900F05F810E490F48012629446C
:1042300084F8166581424FF04006A4F8186500F234
:10424000AC810E2161F38D234FF40051D360516195
:10425000D8E600BFB0300020F8100020C4350020A0
:10426000A8B60608401E1BFF3F420F00DC350020A9
:1042700000238DF8133094F826368DF81330B64BA2
:10428000B648D3F80C319847D4F82435D4F8202513
:10429000986894F81E354FF400615161002B3FF48B
:1042A0009DAEC2077FF59AAE94F82936012B7FF4B4
:1042B00095AE9DF81330032B7FF490AED4F82036E2
:1042C000A7491A6842F001021A601A6842F0030214
:1042D0001A600B6943F006030B617FE6D4F824658E
:1042E000D4F820157368002723F001037360059745
:1042F000059B43F020030593059B67F38A13059301
:10430000059B0B610B690593BC46964B03E00A695C
:104310000592013B02D0059A9006F8D494F8152531
:1043200052B1914B03EB820EFF2253F8040F8260CF
:10433000D86B73458260F8D10B2363F3070763F3EF
:10434000070C4FF0FF33B3614FF00113F361776156
:10435000C6F810C0336885486FF30A13336094F8C9
:104360001725D4F86835012A186100F0B5804FF49C
:1043700080534B61784B7948D3F8083198473EE633
:10438000D4F820359A6922F010029A611A6AC2F3B1
:104390004340022802F00F0100F0B080062800F030
:1043A00087809A6942F010029A6125E694F81E35DA
:1043B0003BB1D4F82026136823F0030161F307030F
:1043C0001360D4F82425644B6448D3F81011536863
:1043D00023F0010353608847D4F820354FF00042A2
:1043E0005A61F5E5516BD8F800005B4B4FF0010CBA
:1043F0000CFA07FC21EA0C0151630122D3F8FC30CE
:10440000826031465548984794F81735012B00F0E3
:10441000B18019F0020F3FF442AED8F8003002220A
:104420009A6099E6CB0604D5D8F8003010229A603D
:1044300092E6480658BF8946EBD5D8F800304022AE
:104440009A6089E694F817253368012082429860C3
:1044500007D11A69D8F87C33C2F312029B1AC8F844
:104460008C33DBF8F8305046984794F81735012B19
:104470007FF490AE002F7FF48DAE94F82536052B97
:104480007FF488AED4F86835384A1A61384A5A61E0
:104490001A684FF080221A607CE610077FF57AAE2A
:1044A000DBF8003150469847336808229A6071E67D
:1044B00001EB810104EBC101D4F8E465D1F8A00857
:1044C000C2F30A1202443068C4F8E00A3068C4F843
:1044D000E40AC1F8A02864E7254A5A611A684FF037
:1044E00080221A6043E7002184F816154FF400710A
:1044F000A4F81815092161F38D23A5E647F6F0709D
:1045000010423FF44EAFC2F30A1201EB810004EBFC
:10451000C00002F1030C5FEAAC0CD0F89468D4F848
:10452000E4E54FEA810818BF002006D00130DEF82C
:10453000007046F8047B8445F8D1414404EBC10186
:10454000D1F894081044C1F89408D1F8A0080244A6
:10455000C1F8A02825E700BFF8100020C4350020CE
:1045600000ED00E0400D0300D83500201800086081
:10457000903B0020002F7FF44CAF94F82536042B9D
:104580007FF447AFD4F868352B4A1A612B4A5A6139
:104590001A684FF080221A603BE72948A5F574019C
:1045A000A1F51051814203D80D2161F38D234BE613
:1045B000244925482944814203D20C2161F38D23EB
:1045C00042E62248A5F18C71A1F54341814203D80E
:1045D0000B2161F38D2337E61D491E482944814292
:1045E00003D20A2161F38D232EE61B491B4829447F
:1045F000814203D2092161F38D2325E61848A5F1F4
:10460000B771A1F55851814203D2082161F38D237E
:104610001AE6144914482944814203D2072161F360
:104620008D2311E6114912482944814234BF0621E5
:10463000052161F38D2307E618000860903B0020F8
:10464000DFC810002013FBFE20D61300FF691800FE
:1046500000D3CEFE40771B00C05BB3FEC0912100AB
:1046600040AC2700C01D6AFE40E13300803C36FEAE
:10467000E09C41000378022B12D00E494368026986
:10468000D1F8180210B41840D1F81042D1F80C1229
:10469000931E400A04FB030008445DF8044B704776
:1046A000044B4268D3E9800100EB410000EB52204B
:1046B000704700BFF85B00202DE9F84F12F0020EA2
:1046C00001D000283CD08A4DD5F80872002F43D184
:1046D0004FF0FF3C874CE146E046E2460026276863
:1046E000B84200F0D98094F80EB0BBF1000F4ED064
:1046F000BBF1010F16D1804F06F5817B07EB0B1B39
:104700009BF807B01BF0010F0CD11BF07E0F09D1F5
:104710005FEADB1740F0B480D4F808B0D34501D28B
:10472000DA46B1460136082E04F11004D7D1BCF1A7
:10473000FF3F38D1B8F1FF3F30D06F4CC44633E073
:104740006B4D95F8B431A5F58054E3B10123637046
:1047500002263046BDE8F88FD5E9834606FB0744BC
:10476000A042B5D395F8B43113B9012385F8B4311B
:10477000614B012200265A703046BDE8F88F95F84B
:10478000B431002BE2D1012385F8B431DEE7B44621
:104790000136082E04F11004A1D1C8E7B9F1FF3F9A
:1047A00018BFCC4674D0544CD5F8986004EB0C1864
:1047B00041F21809013648F8090041F21C090CF5CC
:1047C000817748F809604FEA0718C5F8986044F8FF
:1047D000086004EB07164FF00008C6F8048004EBED
:1047E0000716B679042ECAD8DFE806F00319521965
:1047F0002F0012F0010868D104EB0710D61090F8D2
:104800000790032B66F3C71980F807905BD94FF622
:10481000FF70834228BF034604EB07108380BEF17C
:10482000000F12D0D5F89830D5F89C000133013034
:10483000C5F89830C5F89C0004EB0C1041F21C053B
:10484000435104EB071304209871500705D504EB7E
:104850000710C37943F00103C371D30608D504EBF5
:104860000714E379C3F34502013262F34603E371AF
:10487000224B012603EB4C230B603046BDE8F88F3A
:10488000B0460136082E04F110047FF428AF4EE73D
:1048900000263046BDE8F88F174C06F5817704EB0B
:1048A000071C4FEA07189CF806C0BCF1000F01D1A5
:1048B000B44679E7B446D5F89860013644F8086004
:1048C000C5F898608BE74346A6E70D4BD3F8DC3C70
:1048D000002BDDD009495D680A4A01EB4C21002319
:1048E000A8470028D4D004EB07140223A37130E7B3
:1048F000F85B0020105C0020F84B0020104C0020DA
:10490000B81F0020B107000870B5104E3378022B95
:104910000F4B0BBF020AC0F3D412C4B200F07F04E5
:10492000D3F8000282B010440D460023032201A9EF
:10493000FFF7C2FE012807D13378022B019B0CBF81
:1049400023F8145043F8245002B070BDF84B0020F7
:10495000F85B00202DE9F04FDFF82C8198F800601B
:10496000032E85B00C46154643D001288CBF00228B
:104970000122022E0B68019269D14FEA1329DFB29E
:104980004FF4807A0138012820D84FF0010B9D4266
:1049900017D93C4ED6F878211AB1D6F8941199421D
:1049A00058D0D6F8000200234844092203A9FFF793
:1049B00083FE01282CD0022817D020B123689D4205
:1049C000E8D82560032005B0BDE8F08FF7B12D4B86
:1049D00093F8B42112B9012283F8B42101230220F3
:1049E00088F8013005B0BDE8F08F022005B0BDE8C1
:1049F000F08F01288CBF0023012301930B684FF037
:104A0000800AC3F3D41903F07F07BBE7D346BEE7A0
:104A100098F800200399DDF804C0022A14D0032A74
:104A2000E3D151F8273023F07043B3FA83F35B09E5
:104A300063455F44236821D05B4457452360ECD332
:104A400009F101090027BAE731F81730EDE74FF413
:104A5000807AD6E7D6F81012013A02EB41224902D9
:104A6000B2FBF1F21344B3FBFBF20BFB12320AB1BF
:104A70005B449B1A9D4223608CD8A2E7AB42A2D331
:104A80009FE700BFF85B0020F84B00202DE9F04FB6
:104A9000DFF86CB19BF800C0BCF1020F894683B00F
:104AA00009688246174640F08C800BF58053CEB2E1
:104AB000D3F80052A6EB010805EB112590444FF402
:104AC00080739844B94208F1FF38B8FBF3F84CD230
:104AD000A844BCF1030F07EB06040CBF80224FF47F
:104AE0008072641A9442A8EB050328BF144666B985
:104AF00094422CBF0A220B2201A92846FFF7DCFDB5
:104B0000012809D003B0BDE8F08F0B2201A9284687
:104B1000FFF7D2FD0128F5D19BF800C0D9F80010AD
:104B2000BCF1020F01F1010323D0B44210D9019965
:104B300006F18042013A01EB8202043901EB840163
:104B400042F8043F914203F10103F9D1D9F8001072
:104B5000A61B3144BAF1010FC9F8001021D08F42D1
:104B600005F101054FF00006B3D8012003B0BDE800
:104B7000F08FB442ECD9019806F10042013A00EB03
:104B80004202023800EB440022F8023F904203F157
:104B90000103F9D1A61B3144BAF1010FC9F8001085
:104BA000DDD1B942DBD1BCF1020F1DD004F180444C
:104BB000019B013C4FF0FF3243F82420D9F800104C
:104BC000CDE70BF5805301F07F06D3F80032BCF13E
:104BD000030FC1F3D415A6EB01081D44904414BF84
:104BE0004FF4807380236CE704F10044019B013C87
:104BF0004FF6FF72504623F8142003B0BDE8F08F43
:104C0000F84B002030B50446C06983B010B90120CC
:104C100003B030BD0D460023032201A9FFF74CFD70
:104C20000128F5D1B4F92030002B0ADA144B93F89F
:104C3000B4210AB983F8B401124B01225A70022040
:104C4000E6E7019A012D4FEA431102EB431303D02B
:104C5000022D11D1E5255554A268DA612278032A84
:104C600004D100221A775A779A77DA77626A5A83E0
:104C7000120C9A8203B030BDE268DA61EEE700BF41
:104C8000F85B0020F84B00202DE9F04190F83C3013
:104C9000002982B0044614BF02210021042B7BD8D6
:104CA000DFE803F0030C3D486900FFF7ABFF012884
:104CB00070D1626B002A75D184F83C00404EDFF859
:104CC00008814FF6F77706F5805516E0BA424FD8BF
:104CD0005EF0B6FA01284FF000011DD1206BFFF7FE
:104CE00013FE012818D1019AD5F814122263531E1D
:104CF0008B4228BF0B46C5F814323278236B032A47
:104D000001A918469AB2E1D1434531D85EF098FA2C
:104D100001284FF00001E1D002B0BDE8F081426B04
:104D200004F130010020FFF7B1FE012832D1032346
:104D300084F83C302348E16AD0F89431D0F810224E
:104D4000C0F894115B1A02FB03F3D0F8782102EB50
:104D50004322C0F87821D0F87C2102EB4323C0F82D
:104D60007C31002100F5B870FFF74CFF012811D10C
:104D7000042384F83C3094F82830042B04BF00232B
:104D800084F82830A36B8BB120469847012002B0ED
:104D9000BDE8F0810228BFD194F82830042B09D057
:104DA0000220B9E7022384F83C30B9E7012002B0C1
:104DB000BDE8F081002384F828300220ACE700BF72
:104DC000F84B0020F85B0020F7FFFF0F38B590F894
:104DD00034300446052B43D8DFE803F01E033C0FB4
:104DE000185E006B4FF0FF31FFF78EFD012837D1C1
:104DF000E06AB8BB032384F8343000212046FFF773
:104E000001FF01282CD1042384F8343094F8283091
:104E1000082B2BD0012038BD204DD5F8082200F1F9
:104E2000300102320120FFF795FD012823D002381E
:104E3000C0B2012814D8052384F8343094F82830FF
:104E4000082B04BF002384F82830012385F8B531EE
:104E5000022038BDC06A216BFFF756FD0128C9D07A
:104E6000002038BD022384F83430F4E7002384F8AE
:104E70002830012038BDE368D5F81012D4E90B20A2
:104E800003EB4123C5F81402C4E9033002B96062A0
:104E9000012384F83430A5E7004DCFE7F85B00200C
:104EA00010B590F838300446032B4DD8DFE803F0F6
:104EB000022F38432B4AC068117802F5805303292A
:104EC000D3F81012D3F894210CBF4FF0800C4FF49C
:104ED000807C01FB0CF100EB4120C4E90302D3F814
:104EE0007801A0EB4120C3F87801D3F87C01A0EB56
:104EF0004121E06AC3F87C1102EB0C01C3F8941164
:104F0000C4E90C2148BB6262012384F8383016489A
:104F10000021FFF777FE012811D1022384F83830F1
:104F2000626B04F130010120FFF7B0FD012806D1CA
:104F3000032384F8383000212046FFF763FE431E28
:104F4000DBB2012B01D910BD022094F82830062BCA
:104F500004BF002384F8283010BDA2EB0C022263AA
:104F6000D2E700BFF84B0020685D00202DE9F04338
:104F70004368C3F308020A44B2F5007F83B00446D5
:104F80000D4605D22B446360012003B0BDE8F083D9
:104F900090F91A20501C0AD0444902F5817201EBA5
:104FA0000212D1796FF30001D171FF22A27694F938
:104FB0001B20511C16D03D4802F5817100EB0112F7
:104FC00000EB0111D279C879C2F34502012A86BFEC
:104FD00002F1FF3202F03F020022FF2662F3460098
:104FE000C871E67694F800C0BCF1020FCAD0DFF8B1
:104FF000C480D8F81022B5EB422F4FEA422915DCC5
:10500000D8F818721F407A42AA420FDCEA194A45C2
:1050100010D220690028B7D0244A1278032A40D041
:1050200080B24FF6F7729042ACD9ADE7002003B0E2
:10503000BDE8F083227E206912F0080626D0D8F859
:105040009421411C8A4213D300D100214B44A5EB8B
:105050000905DB1BBCF1020F60613D442161636007
:105060000846D7D1D8F82022B3EB422F8AD38BE75A
:1050700098F8B42122B9012388F8B4316368206913
:105080000A4A0126567094F800C0DFE701A95EF0D5
:10509000D7F80128CAD10199636894F800C0206943
:1050A000D4E7034A90427FF66DAF6DE7F84B0020DE
:1050B000F7FFFF0FF85B00202DE9F04790F838402C
:1050C00082B00546032C00F2AD80DFE804F002193F
:1050D000730BFFF77BFE012810D002280AD10323AF
:1050E00085F838302B6C002085F82800002B71D013
:1050F00098470224204602B0BDE8F08785F83800C2
:105100002B78022B62D0484A6B68D2F8182203EA47
:105110000208C8F34F282846FFF7ACFA424F06466C
:10512000A8EB0008A7F5805901A902220023304608
:10513000FFF7C2FA08EB060401281FFA84FA4FF4BD
:1051400000724FF000010446D4D1019866F00FFAC6
:10515000EB694FF40071284613B16B68002B3DD00A
:10516000D7F810325A1E924506F101060DD2FFF70C
:10517000FDFE0028D8D197F8B43113B9012387F880
:10518000B431012389F80130CEE7C3EBC353590290
:1051900001F500712846FFF7E9FE40B997F8B431F0
:1051A00013B9012387F8B431204B01225A7002232E
:1051B00085F838302B6C002285F8282063B128460A
:1051C00098470124204602B0BDE8F0876B68C3F31E
:1051D0004F28A0E702248DE701248BE7019B4FF0C5
:1051E00020324FF02E0E4FF0100C1A605A6083F8E8
:1051F00000E0C3F807206C6A1A625A6283F80BC099
:10520000C3F8272083F820E083F821E0EA6B5C8371
:105210005A8724FA0CF422FA0CF29C8283F82BC0F1
:105220009A869DE7002465E7F85B0020F84B002094
:105230002DE9F041B1F904300F2B82B00E4604463F
:10524000174635D02046FFF715FA94F91B80B8F1C0
:10525000FF3F3ED0554B41F2180203EB08118A582C
:10526000904211D1183303EB4825B38801331BB2A8
:1052700005EB4315B38020463D60FFF7FBF9306036
:10528000012002B0BDE8F08103F5805292F8B4111C
:1052900000296AD001225A702278022A69D0236933
:1052A000002B50D1002301203B6002B0BDE8F0810B
:1052B0004FF40071FFF75AFE002852D04FF6FF73EB
:1052C000B3802046FFF7D6F994F91B80B8F1FF3F71
:1052D000C0D12278022A54D02369002BDDD0334973
:1052E000097803290EBF32499BB24FF6F7718B4202
:1052F00094BF00230123002BCFD138B92D4A92F857
:10530000B431002B4ED0294B01225A7000231122B8
:1053100001A9FFF7D1F9012842D1019D264BEB1AD3
:1053200048BF03F2FF13B3F5805F4FEA632230D327
:10533000204A92F8B43113B9012382F8B4311B4BDF
:1053400001225A7027E0194A1278032A0EBF184A20
:105350009BB24FF6F772934294BF00230123002BB8
:10536000A0D1002002B0BDE8F081012182F8B41183
:1053700090E7104A6368D2F82022B3EB422F91D213
:10538000EFE70C4A6368D2F82012B3EB412FB4D395
:10539000F1E74FFA82F884F81B80002D7FF465AFA7
:1053A00022787AE7012382F8B431ACE7F84B002089
:1053B000F7FFFF0FF85B0020104C00202DE9F047AD
:1053C00090F8303086B00446042B54D8DFE813F050
:1053D00005000E005600E6004F00C2485EF0D0FA0D
:1053E0004FF6FF720123228484F83030DFF8F48214
:1053F00004F11C0501AE04F131093246294640464C
:10540000FFF716FF012800F0F080022833D1B649DB
:1054100001F5805595F9D221531C0AD002F581720D
:1054200001EB0212D3796FF30003D371FF2385F8E8
:10543000D23195F9D3315F1C16D003F5817301EB9E
:10544000031201EB0313D279D979C2F34502012A81
:1054500086BF02F1FF3202F03F02002262F34601F2
:10546000FF22D97185F8D321042384F8303000203D
:10547000E36A2070984706B0BDE8F0879B4D95F829
:10548000E031002BF7D1974F04F11C0901AE4FF02A
:105490000908324649463846FFF7CAFE012840F05F
:1054A0000F810198002800F0EB800378E52B01D0F4
:1054B000002BEED18E4A821A48BF02F2FF12B2F5DB
:1054C000805F4FEA622380F0678187491B01894A28
:1054D00013449A7B042A0CD0D5F898200132C5F8E1
:1054E00098205A6004229A73D5F89C300133C5F88D
:1054F0009C3095F9D2315E1C0AD003F5817301EB23
:105500000313FF2285F8D221DA796FF30002DA71F2
:1055100095F9D3315A1C18D003F5817301EB0312AE
:1055200001EB0313D279C2F34502012A4FF0FF01C8
:1055300088BF02F1FF3285F8D311D9798CBF02F010
:105540003F02002262F34601D9712022002166F059
:105550000EF8019BD4F83120D4F8351059601A6048
:10556000B4F8392094F83B1099721A81019B627E3D
:10557000DA7203A802F04CFD002840F0D480019BB1
:105580006FF07E01472219745A749873D87344F2ED
:10559000817503221D83D88284F83020237E9806EB
:1055A00008D5E0690023112202A9FFF785F8012838
:1055B0007FF461AF20465EF0E3F92369002B00F031
:1055C0008380237E03F0F70213F00403227640F079
:1055D0009380122A00F0CE800022E36A84F828200B
:1055E0002046984706B0BDE8F087019F002F00F0E5
:1055F000DF803B78002B00F0DB8097F80BA01AF0DF
:10560000080F7FF4FAAE0B224946384665F0FEFFDC
:1056100000287FF4F2AE637E8AEA0303D90640F1E4
:105620000881314901F5805595F9D2315A1C0AD0CB
:1056300003F5817301EB0313FF2285F8D221DA7998
:1056400060F30002DA7195F9D321571C3FF40CAFD7
:1056500002F5817201EB021301EB0211DB79CA79C9
:10566000C3F34503012B86BF03F1FF3303F03F0370
:10567000002363F34602FF23CA7185F8D331F3E6B2
:1056800095F8B831022B3FF4EFAE95F8E031002BDE
:105690007FF4EAAEC5E97D3385F8F03185F8EC3169
:1056A000D5F8CC31C5F8E431D5F8143285F8E0816D
:1056B000C5F8E8313846FFF7FFFC01283FF4E9AEB2
:1056C00002283FF4D1AED6E6237E190784D5074BD6
:1056D00093F89821002A7FF4CEAE072283F8982110
:1056E0007AE700BFB05D0020F84B0020F85B002097
:1056F000104C0020105C0020A568E66A002384F8A6
:10570000283029462046FFF731FC002840F08B80E6
:1057100094F82830002B7FF4AEAE0223C4E90B6569
:1057200084F82830A7E6654B03A9B3F8083BADF829
:105730000830084602AA5DF0CDFC9DF80E509DF899
:105740000F10BDF80C00019B9DF8102041EA451197
:10575000A0F2BC7041EA40218DB219829DF811106F
:10576000D20242EA41129DF8121042EA510290B26E
:10577000DA810EE7626AE16AA163042084F82800F6
:10578000C4E90B22C4E9023384F83C3063636362EA
:1057900020465EF0F5F86EE695F8B43113B90123B2
:1057A00085F8B431464901234B706FF00F038EE644
:1057B000434901F5805595F9D2315F1C0AD003F5B4
:1057C000817301EB0313DA796FF30002DA71FF23BF
:1057D00085F8D23195F9D3315E1C16D003F581736B
:1057E00001EB031201EB0313D279D979C2F345021D
:1057F000012A86BF02F1FF3202F03F02002262F36B
:105800004601FF22D97185F8D321237ED8067FF582
:105810002BAE2C485EF0B4F84FF6FF7202232284C0
:1058200084F830302BE6002E3FF425AE2046B047FA
:1058300021E6BA8A7B8B244D43EA02436362D5F8A2
:105840001022FB69A3605202B3FBF2F102FB11319B
:1058500009B113445B1AE36084F819A095F9D231B9
:1058600017495E1C0AD003F5817301EB0313DA7943
:105870006FF30002DA71FF2385F8D23195F9D32155
:10588000501C16D002F5817201EB021301EB0211DC
:10589000DB79CA79C3F34503012B86BF03F1FF33DC
:1058A00003F03F03002363F34602FF23CA7185F828
:1058B000D331032384F8303070E600BFB0300020CD
:1058C000F84B0020B05D0020F85B002010B5037895
:1058D00090F818C0023B012B044602D91CF0060FB9
:1058E0006AD11CF0200F44D194F91A30591C0AD007
:1058F000384A03F5817302EB0313FF21DA796FF362
:105900000002DA71A17694F91B305A1C16D0314985
:1059100003F5817301EB031201EB0313D279D979FB
:10592000C2F34502012A86BF02F1FF3202F03F02B4
:10593000002262F34601FF22D971E2761CF0080FC3
:105940000ED0254B93F89821072A06D093F8B4215E
:10595000002A3BD01F4A01215170002283F8982170
:10596000E26A0023237084F8283022B3BDE8104097
:10597000104700231949E0691A018A58904206D05D
:105980000133082BB0D01A018A589042F8D111493E
:1059900003F5817301EB0312D279C2F34502012AA8
:1059A00012D9013A02F03F0201EB0313D97962F3F5
:1059B0004601D97198E710BD0121FFF723F90128AD
:1059C000F9D194F818C08CE70022EDE7012283F8A2
:1059D000B421BFE7F84B0020F85B0020105C0020EA
:1059E0004FF0FF302DE9F041344A354D0446002395
:1059F00004E00133082B02F1100216D011780429BB
:105A0000F7D103F5817105EB0111C979CF07F0D406
:105A1000661C52F80A1C01D08142EAD21C460133AE
:105A2000082B084602F11002E8D1631C02D10120C4
:105A3000BDE8F081224DDFF8988004F5817705EB11
:105A400007139988F9B91F4ED8F8DC3C06EB4421BE
:105A500023B3D3F80C801C4A41F2180305EB04145D
:105A6000E0580023C047C8B1022824D106F6E876E2
:105A700005EB0715D6F89C300122013BC6F89C3097
:105A8000AA710020D4E7D8F8DC3C3BB19A6841F217
:105A9000180005EB041318589047D4E70B4BD3F8C4
:105AA0009C2005EB07150320013A0121C3F89C2037
:105AB000A87183F8A0100020BDE8F0811E5C0020D2
:105AC000F84B0020104C002029080008F85B00204B
:105AD000B81F00202DE9F04F90F82830013B83B02B
